S01100004D6963726F776176652E7372656366
S113000045C0000053C0000051C000004FC00000B4
S11300104DC000004BC0000049C0000047C00000B4
S113002045C0000043C0000041C000003FC00000C4
S11300303DC000003BC0000039C0000037C00000D4
S113004022C1000033C00000C4C000002FC0000063
S11300502DC000002BC0000029C0000027C00000F4
S113006025C0000023C0000021C000001FC0000004
S11300701DC000001BC0000019C0000017C0000014
S113008015C0000013C0000011C0000011241FBEE1
S1130090CFEFD0E1DEBFCDBF21E0A0E0B1E001C0F1
S11300A01D92AA33B207E1F746D16EC1A9CF8AB334
S11300B01ABA8BB38FEF8BBB97B317BA98B388BBBD
S11300C094B314BA95B385BB91B311BA92B382BBFE
S11300D092B112B893B183B9E1E6F0E09081108255
S11300E0E2E6F0E090818083E4E6F0E08081807EC7
S11300F08083E5E6F0E080818F61808387B381604F
S113010087BB88B38E7F88BB87B38D7F87BB88B35B
S11301108D7F88BB10BE82E083BF8EEC82BF11BE90
S11301201FBC1EBC1DBC1CBC17BC16BC1BBC1ABC13
S113013019BC18BC109279001092780015BC14BC3C
S113014013BC10928B0010928A00109289001092B6
S11301508800109281001092800010928700109203
S113016086001092850010928400109283001092F1
S1130170820017BE10927D0010926A001ABE19BE4A
S11301801BB888E98AB986E08093950010929000A4
S113019089E189B910929A0016B81DB810927400BA
S11301A008955F9BFECF8CB108955D9BFECF8CB903
S11301B0089580E090E005C0FC01EC5FFE4F1082E2
S11301C0019682339105C0F310920001109201014F
S11301D008951F920F920FB60F9211240BB60F922F
S11301E02F933F934F935F936F937F938F939F933B
S11301F0AF93BF93CF93DF93EF93FF93C09101012C
S1130200D0E0CFDFCC5FDE4F8883809101018F5F28
S11302108093010190E0FC01EE5FFE4F20812F3FAF
S113022059F4FC01ED5FFE4F80818F3F29F481E09A
S1130230809300011092010180910001813071F4DA
S113024080910101882351F080910401853029F4C3
S113025080910301816080930301ABDFFF91EF91F3
S1130260DF91CF91BF91AF919F918F917F916F91CA
S11302705F914F913F912F910F900BBE0F900FBE46
S11302800F901F9018951F920F920FB60F92112482
S11302900BB60F920F931F932F933F934F935F933C
S11302A06F937F938F939F93AF93BF93CF93DF937A
S11302B0EF93FF938EEC82BF8091380190913901C6
S11302C001969093390180933801B1991DC017BEEE
S11302D0C0913801D0913901C13F85E0D80784F439
S11302E00D2F112707FD1A958FEF90E05EDF8FEF3A
S11302F090E05BDFC801992758DFCE01992755DFCD
S11303001092390110923801FF91EF91DF91CF9152
S1130310BF91AF919F918F917F916F915F914F9119
S11303203F912F911F910F910F900BBE0F900FBE15
S11303300F901F901895F894BADE78948091030179
S113034080FF14C088B3816088BB8AE68A95F1F780
S113035000C088B38E7F88BB809103018E7F809319
S11303600301809102018160809302018091020166
S113037080FFE4CFB19BE2CF81E087BF809102018F
S10F03808E7F80930201DACFF894FFCF47
S9030000FC
